{
  "contractName": "SCZ",
  "abi": [
    {
      "inputs": [],
      "name": "numOfFunders",
      "outputs": [
        {
          "internalType": "uint256",
          "name": "",
          "type": "uint256"
        }
      ],
      "stateMutability": "view",
      "type": "function",
      "constant": true
    },
    {
      "inputs": [],
      "name": "owner",
      "outputs": [
        {
          "internalType": "address",
          "name": "",
          "type": "address"
        }
      ],
      "stateMutability": "view",
      "type": "function",
      "constant": true
    },
    {
      "inputs": [],
      "name": "testNum",
      "outputs": [
        {
          "internalType": "uint256",
          "name": "",
          "type": "uint256"
        }
      ],
      "stateMutability": "view",
      "type": "function",
      "constant": true
    },
    {
      "stateMutability": "payable",
      "type": "receive",
      "payable": true
    },
    {
      "inputs": [],
      "name": "emitLog",
      "outputs": [
        {
          "internalType": "bytes32",
          "name": "",
          "type": "bytes32"
        }
      ],
      "stateMutability": "pure",
      "type": "function",
      "constant": true
    },
    {
      "inputs": [
        {
          "internalType": "address",
          "name": "newOwner",
          "type": "address"
        }
      ],
      "name": "transferOwnership",
      "outputs": [],
      "stateMutability": "nonpayable",
      "type": "function"
    },
    {
      "inputs": [],
      "name": "addFunds",
      "outputs": [],
      "stateMutability": "payable",
      "type": "function",
      "payable": true
    },
    {
      "inputs": [
        {
          "internalType": "uint256",
          "name": "withdrawAmount",
          "type": "uint256"
        }
      ],
      "name": "withdraw",
      "outputs": [],
      "stateMutability": "nonpayable",
      "type": "function"
    },
    {
      "inputs": [],
      "name": "getAllFunders",
      "outputs": [
        {
          "internalType": "address[]",
          "name": "",
          "type": "address[]"
        }
      ],
      "stateMutability": "view",
      "type": "function",
      "constant": true
    },
    {
      "inputs": [
        {
          "internalType": "uint8",
          "name": "index",
          "type": "uint8"
        }
      ],
      "name": "getFunderAtIndex",
      "outputs": [
        {
          "internalType": "address",
          "name": "",
          "type": "address"
        }
      ],
      "stateMutability": "view",
      "type": "function",
      "constant": true
    }
  ],
  "bytecode": "0x608060405234801561001057600080fd5b50336000806101000a81548173ffffffffffffffffffffffffffffffffffffffff021916908373ffffffffffffffffffffffffffffffffffffffff1602179055506103e8600181905550610b34806100696000396000f3fe60806040526004361061008a5760003560e01c8063a26759cb11610059578063a26759cb14610152578063ae28f1ed1461015c578063af7f2c9b14610187578063f2fde38b146101b2578063f42c13bf146101db57610091565b80630a93cf33146100965780632e1a7d4d146100d35780636fbbb55d146100fc5780638da5cb5b1461012757610091565b3661009157005b600080fd5b3480156100a257600080fd5b506100bd60048036038101906100b89190610670565b610206565b6040516100ca91906106de565b60405180910390f35b3480156100df57600080fd5b506100fa60048036038101906100f5919061072f565b610246565b005b34801561010857600080fd5b506101116102dd565b60405161011e919061081a565b60405180910390f35b34801561013357600080fd5b5061013c6103d7565b60405161014991906106de565b60405180910390f35b61015a6103fb565b005b34801561016857600080fd5b50610171610524565b60405161017e919061084b565b60405180910390f35b34801561019357600080fd5b5061019c61052a565b6040516101a9919061084b565b60405180910390f35b3480156101be57600080fd5b506101d960048036038101906101d49190610892565b610530565b005b3480156101e757600080fd5b506101f0610601565b6040516101fd91906108d8565b60405180910390f35b6000600460008360ff16815260200190815260200160002060009054906101000a900473ffffffffffffffffffffffffffffffffffffffff169050919050565b8067016345785d8a0000811115610292576040517f08c379a000000000000000000000000000000000000000000000000000000000815260040161028990610976565b60405180910390fd5b3373ffffffffffffffffffffffffffffffffffffffff166108fc839081150290604051600060405180830381858888f193505050501580156102d8573d6000803e3d6000fd5b505050565b6060600060025467ffffffffffffffff8111156102fd576102fc610996565b5b60405190808252806020026020018201604052801561032b5781602001602082028036833780820191505090505b50905060005b6002548110156103cf576004600082815260200190815260200160002060009054906101000a900473ffffffffffffffffffffffffffffffffffffffff16828281518110610382576103816109c5565b5b602002602001019073ffffffffffffffffffffffffffffffffffffffff16908173ffffffffffffffffffffffffffffffffffffffff168152505080806103c790610a23565b915050610331565b508091505090565b60008054906101000a900473ffffffffffffffffffffffffffffffffffffffff1681565b6000339050610408610629565b50600360008273ffffffffffffffffffffffffffffffffffffffff1673ffffffffffffffffffffffffffffffffffffffff16815260200190815260200160002060009054906101000a900460ff166105215760006002600081548092919061046f90610a23565b9190505590506001600360008473ffffffffffffffffffffffffffffffffffffffff1673ffffffffffffffffffffffffffffffffffffffff16815260200190815260200160002060006101000a81548160ff021916908315150217905550816004600083815260200190815260200160002060006101000a81548173ffffffffffffffffffffffffffffffffffffffff021916908373ffffffffffffffffffffffffffffffffffffffff160217905550505b50565b60015481565b60025481565b60008054906101000a900473ffffffffffffffffffffffffffffffffffffffff1673ffffffffffffffffffffffffffffffffffffffff163373ffffffffffffffffffffffffffffffffffffffff16146105be576040517f08c379a00000000000000000000000000000000000000000000000000000000081526004016105b590610ade565b60405180910390fd5b806000806101000a81548173ffffffffffffffffffffffffffffffffffffffff021916908373ffffffffffffffffffffffffffffffffffffffff16021790555050565b60007f4c6f67676572206c6f6765720000000000000000000000000000000000000000905090565b60006064905090565b600080fd5b600060ff82169050919050565b61064d81610637565b811461065857600080fd5b50565b60008135905061066a81610644565b92915050565b60006020828403121561068657610685610632565b5b60006106948482850161065b565b91505092915050565b600073ffffffffffffffffffffffffffffffffffffffff82169050919050565b60006106c88261069d565b9050919050565b6106d8816106bd565b82525050565b60006020820190506106f360008301846106cf565b92915050565b6000819050919050565b61070c816106f9565b811461071757600080fd5b50565b60008135905061072981610703565b92915050565b60006020828403121561074557610744610632565b5b60006107538482850161071a565b91505092915050565b600081519050919050565b600082825260208201905092915050565b6000819050602082019050919050565b610791816106bd565b82525050565b60006107a38383610788565b60208301905092915050565b6000602082019050919050565b60006107c78261075c565b6107d18185610767565b93506107dc83610778565b8060005b8381101561080d5781516107f48882610797565b97506107ff836107af565b9250506001810190506107e0565b5085935050505092915050565b6000602082019050818103600083015261083481846107bc565b905092915050565b610845816106f9565b82525050565b6000602082019050610860600083018461083c565b92915050565b61086f816106bd565b811461087a57600080fd5b50565b60008135905061088c81610866565b92915050565b6000602082840312156108a8576108a7610632565b5b60006108b68482850161087d565b91505092915050565b6000819050919050565b6108d2816108bf565b82525050565b60006020820190506108ed60008301846108c9565b92915050565b600082825260208201905092915050565b7f43616e6e6f74207769746864726177206d6f7265207468616e20302e3120657460008201527f6865720000000000000000000000000000000000000000000000000000000000602082015250565b60006109606023836108f3565b915061096b82610904565b604082019050919050565b6000602082019050818103600083015261098f81610953565b9050919050565b7f4e487b7100000000000000000000000000000000000000000000000000000000600052604160045260246000fd5b7f4e487b7100000000000000000000000000000000000000000000000000000000600052603260045260246000fd5b7f4e487b7100000000000000000000000000000000000000000000000000000000600052601160045260246000fd5b6000610a2e826106f9565b91507fffffffffffffffffffffffffffffffffffffffffffffffffffffffffffffffff821415610a6157610a606109f4565b5b600182019050919050565b7f4f6e6c79206f776e65722063616e2063616c6c20746869732066756e6374696f60008201527f6e00000000000000000000000000000000000000000000000000000000000000602082015250565b6000610ac86021836108f3565b9150610ad382610a6c565b604082019050919050565b60006020820190508181036000830152610af781610abb565b905091905056fea26469706673582212208bf98b5b5b05fd31a945eff936853a98d62c574aacf40ad32ee97b54b776119c64736f6c634300080a0033",
  "immutableReferences": {},
  "source": "// SPDX-License-Identifier: MIT\npragma solidity >=0.4.22 <0.9.0;\nimport \"./Owned.sol\";\nimport \"./Logger.sol\";\nimport \"./IScz.sol\";\n\ncontract SCZ is Owned, Logger, IScz {\n    uint256 public numOfFunders;\n    mapping(address => bool) private funders;\n    mapping(uint256 => address) private lutFunders;\n\n    modifier limitWithdraw(uint256 withdrawAmount) {\n        require(\n            withdrawAmount <= 100000000000000000,\n            \"Cannot withdraw more than 0.1 ether\"\n        );\n        _;\n    }\n\n    receive() external payable {}\n\n    function emitLog() public pure override returns (bytes32) {\n        return \"Logger loger\";\n    }\n\n    function transferOwnership(address newOwner) external onlyOwner {\n        owner = newOwner;\n    }\n\n    function addFunds() external payable override {\n        address funder = msg.sender;\n        simplyLog();\n        if (!funders[funder]) {\n            uint256 index = numOfFunders++;\n            funders[funder] = true;\n            lutFunders[index] = funder;\n        }\n    }\n\n    function withdraw(uint256 withdrawAmount)\n        external\n        override\n        limitWithdraw(withdrawAmount)\n    {\n        payable(msg.sender).transfer(withdrawAmount);\n    }\n\n    function getAllFunders() external view returns (address[] memory) {\n        address[] memory _funders = new address[](numOfFunders);\n\n        for (uint256 i = 0; i < numOfFunders; i++) {\n            _funders[i] = lutFunders[i];\n        }\n        return _funders;\n    }\n\n    function getFunderAtIndex(uint8 index) external view returns (address) {\n        return lutFunders[index];\n    }\n}\n",
  "sourcePath": "/Users/sirawit0676/Desktop/Projects/craft-smart-contracts/contracts/SczContract.sol",
  "compiler": {
    "name": "solc",
    "version": "0.8.10+commit.fc410830.Emscripten.clang"
  },
  "schemaVersion": "3.4.3",
  "updatedAt": "2022-02-03T10:04:47.728Z",
  "networkType": "ethereum",
  "devdoc": {
    "kind": "dev",
    "methods": {},
    "version": 1
  },
  "userdoc": {
    "kind": "user",
    "methods": {},
    "version": 1
  }
}